:020000040800F2
:10000000D0060020450D00082D0200082F02000830
:1000100033020008370200083B020008000000001D
:100020000000000000000000000000003F02000887
:1000300041020008000000004302000845020008D9
:100040005F0D00085F0D00085F0D00085F0D0008E0
:100050005F0D00085F0D00085F0D00085F0D0008D0
:100060005F0D00085F0D00085F0D00085F0D0008C0
:100070005F0D00085F0D00085F0D00085F0D0008B0
:100080005F0D00085F0D00085F0D00085F0D0008A0
:100090005F0D00085F0D00085F0D00085F0D000890
:1000A0005F0D00085F0D00085F0D00085F0D000880
:1000B0005F0D00085F0D0008170500085F0D0008C0
:1000C0005F0D00085F0D00085F0D00085F0D000860
:1000D0005F0D00081F0D0008752900085F0D00085E
:1000E0005F0D00085F0D00085F0D00085F0D000840
:1000F0005F0D00085F0D00085F0D00085F0D000830
:100100005F0D00085F0D00085F0D00085F0D00081F
:100110005F0D00085F0D00085F0D00085F0D00080F
:100120005F0D00085F0D00085F0D00085F0D0008FF
:10013000DFF810D004F054FA0048004749010008E5
:10014000AFF30080D00600200025002400F096FCCC
:1001500000F06CFA00F0FCFC00F07AF900F08AFA8A
:100160004FF4E13000F0FAFC4FF4E13000F049FDCB
:100170001CA1204800F0AFFD1FA11E4800F0ABFD00
:1001800002F06EFB03E04FF4FA7000F0B4FC03F0F1
:10019000B1FB0028F7D100F03DFAFA2000F0ABFCEB
:1001A000012000F037FA1CE0681C80B205462828C0
:1001B0000CDB1749174800F094FB17A10D4800F01D
:1001C0008AFD03F038FC002502F0CEFA032002F08D
:1001D00026FB044614B1204603F06DFC0A2000F013
:1001E0008AFCE1E7486172645761726520696E6953
:1001F000740D0A0000380140CEC2CAAAB6C8B4AB1A
:10020000B8D0C6F7B3F5CABCBBAF210A00000000E6
:1002100000000020040000204F6E654E65745F539F
:10022000656E64446174610D0A000000704700BF90
:10023000FEE700BFFEE700BFFEE700BFFEE7704736
:1002400070477047704700000CB500200190009087
:100250006C48006840F480306A49086000BF694813
:10026000006800F4003000900198401C0190009854
:1002700018B90198B0F5A06FF1D16248006800F498
:10028000003010B10120009001E0002000900098A3
:10029000012843D15C48006840F010005A490860CA
:1002A0000846006820F0030008600846006840F037
:1002B0000200086053484068524948600846406858
:1002C00048600846406840F48060486008464068DE
:1002D00020F47C1048600846406840F4E81048600C
:1002E0000846006840F08070086000BF454800681C
:1002F00000F000700028F9D04248406820F0030068
:10030000404948600846406840F00200486000BF2D
:100310003C48406800F00C000828F9D10CBD10B52D
:10032000FFF792FF10BD10B53648006840F001009D
:1003300034490860084640683449084031494860FB
:1003400008460068324908402E490860084600689F
:1003500020F4802008600846406820F4FE004860D1
:100360004FF41F008860FFF7DAFF4FF00060294963
:10037000086010BD10B5002100200022214B5B68F1
:1003800003F00C0121B1042906D0082928D107E087
:10039000214B224C236027E01F4B204C236023E09D
:1003A000184B5B6803F47010164B5B6803F48032E3
:1003B000022303EB904022B9194B4343174C2360AF
:1003C0000DE0104B5B6803F4003323B1144B43433F
:1003D000124C236003E0104B4343104C236003E0B6
:1003E0000D4B0E4C236000BF00BF064B5B68C3F390
:1003F00003130C4CE15C094B1B68CB40074C23609A
:1004000010BD000000100240002002400000FFF874
:10041000FFFFF6FE08ED00E000127A000800002061
:1004200000093D000C00002008B54FF4A06000F06A
:100430009BFC1E208DF8000000208DF801008DF837
:10044000020001208DF80300684600F092FC08BD10
:100450001FB50121082001F011F84FF40060ADF83C
:10046000000003208DF8020010208DF8030069467B
:10047000614800F047FD4FF400615F4800F0F1FD76
:100480004FF48060ADF8000004208DF80300694649
:10049000594800F037FD4FF48061574800F0E1FD06
:1004A0000121042000F0F7FF4FF0804001F04AF8EE
:1004B00040F2E730ADF808004720ADF80400002016
:1004C000ADF80A00ADF8060001A94C4801F00EF99C
:1004D00001214A4801F02CFF01221146474801F052
:1004E0007CFCFFF7A1FF0021444801F05BFC1FBD2D
:1004F00010B50021414801F0E9FE00204049088084
:1005000001213E4801F04EFC10BD10B500213B48D2
:1005100001F048FC10BD10B50121384801F00BFF77
:1005200040B10121354801F017FF35480088401CD3
:100530003349088010BD10B500BF314800884FF422
:100540007A7100FB01F42D4801F0E3FE0444002021
:100550002A4924310880322000F0CDFA204610BD0F
:100560002DE9F84F4FF0000A0024A346A14631E0E0
:10057000012024490860142000F099FA0020224943
:10058000C1F8AC0100BF1F48843800680028FAD0C9
:10059000FFF7AEFF641C00BF1A48843800680128CA
:1005A000FAD0FFF7B2FFFFF7C6FF8246504603F0CE
:1005B00072FE009003F081FE07460022134B03F009
:1005C000FBFD054603F08CFE83464946584603F082
:1005D00082FC8146052CCBD1484603F06EFE0746CF
:1005E00000220B4B03F0E8FD054603F079FE83463D
:1005F0005846BDE8F88F0000000C0140000800409C
:100600001C000020AC8121420080214200004D40AE
:100610000000144010B5044684F001024FF48071CC
:10062000114800F020FD1148047010BD08B50121EB
:10063000082000F023FF0121084600F01FFF0121E0
:100640000B4800F030FD10208DF803000001ADF8DC
:10065000000003208DF802006946034800F052FCB8
:100660000120FFF7D7FF08BD000C01401E0000204D
:100670000002300008B50121802000F0FFFE0320B9
:10068000ADF800008DF8020010208DF803006946D7
:10069000F14800F037FC08BD38B504466CB10120C4
:1006A000ADF8000003208DF8020010208DF8030043
:1006B0006946E94800F026FC09E00120ADF8000099
:1006C00048208DF803006946E34800F01BFC38BD64
:1006D00010B50120FFF7E0FF0221DF4800F0BFFC6A
:1006E0000121DD4800F0BBFC052000F0E0F901210C
:1006F000D94800F0B6FC052000F0D9F90221D6480F
:1007000000F0AFFC10BD10B50120FFF7C5FF0121BF
:10071000D14800F0A6FC052000F0C9F90221CE481E
:1007200000F09DFC052000F0C2F90121CA4800F04C
:1007300096FC052000F0BBF910BD10B50024002088
:10074000FFF7AAFF0221C44800F089FC022000F054
:10075000AEF908E0601CC0B20446FA2803DDFFF7DA
:10076000D2FF012010BD0121BB4800F05EFC002833
:10077000F0D10221B84800F074FC022000F097F993
:100780000020EFE770B505460221B34800F069FC90
:10079000022000F08CF9002420E00120FFF77CFF0C
:1007A00005FA04F000F0800020B10121AA4800F011
:1007B00056FC03E00121A84800F053FC0221A648A2
:1007C00000F04DFC022000F072F90221A24800F076
:1007D00048FC022000F06BF9601CC4B2082CDCDB82
:1007E00070BD70B5002400251CE00020FFF754FF09
:1007F0000221994800F033FC022000F058F960060D
:10080000040E0121944800F010FC012801D144F0AD
:1008100001040221904800F024FC022000F047F976
:10082000681CC5B2082DE0DB204670BD10B504463B
:100830000120FFF731FF24B10121874800F00FFCB0
:1008400003E00121844800F00CFC0221824800F002
:1008500006FC022000F02BF902217F4800F001FC89
:10086000022000F024F910BD10B5FFF731FF702011
:10087000FFF788FFFFF761FF0446FFF744FF2046BC
:1008800010BD10B5FFF724FF7020FFF77BFFFFF7C7
:1008900054FFE120FFF776FFFFF74FFF0820FFF737
:1008A00071FFFFF74AFF0020FFF76CFFFFF745FFDE
:1008B000FFF729FF282000F01EF910BD10B5FFF743
:1008C00007FF7020FFF75EFFFFF737FFBA20FFF743
:1008D00059FFFFF732FFFFF716FF142000F00BF966
:1008E00010BD2DE9F04F8BB00446894600200990D9
:1008F0000890FFF7EDFE7020FFF744FFFFF71DFFA4
:10090000AC20FFF73FFFFFF718FF3320FFF73AFF58
:10091000FFF713FF0020FFF735FFFFF70EFFFFF78C
:10092000F2FE502000F0E7F8FFF7D2FE7120FFF74B
:1009300029FFFFF702FFFFF754FF48490870002026
:10094000FFF774FF4548007800F0080008B9FFF78A
:1009500098FF4248007800F08000002878D10025F8
:100960000EE0FFF73EFF3E494855042D03D101201C
:10097000FFF75CFF02E00020FFF758FF681CC5B2DC
:10098000052DEEDBFFF7BFFE354800780003344944
:10099000497840EA01103249897840EA21100990EB
:1009A0002F4880780007000B2D49C97840EA0120C4
:1009B0002B49097908430890099803F071FC054612
:1009C0000022284B03F086FB82460022264B03F0D0
:1009D000F3FB07460022244B03F0EEFB0022234BDF
:1009E000CDE9040103F0CFFACDE9060103F078FC6C
:1009F0002060089803F054FC074600221C4B03F0CB
:100A000069FB05460022184B03F0D6FB0022164B6B
:100A1000CDE9000103F0D0FB0022144BCDE9020127
:100A200003F0B1FA0022134BCDE9040103F0C4FB3B
:100A30000022114BCDE9060103F046FB824603F08C
:100A40004FFCC9F8000000200BB0BDE8F08FFFE7B5
:100A5000FFF759FE0120F7E7001C01401F000020AE
:100A60002000002000005940000090400000E03FBE
:100A700000409F40000024400000494010B56FF046
:100A8000040000F0C0F92E4800682E49B0FBF1F0D8
:100A90002D4908700846007800EB4001C1EBC010FA
:100AA0004FF6FF7101EAC0002849088010BD0146D9
:100AB000254A12784A434FF0E0235A6100229A6196
:100AC0001A46126942F001021A6100BF4FF0E0229B
:100AD000106900F001021AB100F48032002AF5D04A
:100AE0004FF0E022126922F001024FF0E0231A6178
:100AF00000229A6170470146144A12884A434FF017
:100B0000E0235A6100229A611A46126942F00102FA
:100B10001A6100BF4FF0E022106900F001021AB123
:100B200000F48032002AF5D04FF0E022126922F062
:100B300001024FF0E0231A6100229A617047000021
:100B40000800002000127A00260000202800002063
:100B500010B54FF4A06000F007F910BD10B586B0D5
:100B600004460121042000F089FC0121880300F0E3
:100B700085FC18208DF817004FF40070ADF81400B4
:100B800003208DF8160005A96B4800F0BBF904207E
:100B90008DF817000002ADF8140003208DF8160040
:100BA00005A9654800F0AEF901940020ADF81000E9
:100BB0000C20ADF80E000020ADF80C00ADF80A00D6
:100BC000ADF8080001A95D4801F00DFC01215B486A
:100BD00001F095FC012240F22551584801F09BFCA0
:100BE00025208DF8000001208DF8030000208DF8ED
:100BF000010002208DF80200684600F0BAF806B045
:100C000010BD10B586B004460121042000F036FC6A
:100C10000121480400F03FFC18208DF81700042043
:100C2000ADF8140003208DF8160005A9424800F025
:100C300069F904208DF817000820ADF8140003208E
:100C40008DF8160005A93C4800F05CF901940020DD
:100C5000ADF810000C20ADF80E000020ADF80C002F
:100C6000ADF80A00ADF8080001A9354801F0BBFB5A
:100C70000121334801F043FC012240F22551304864
:100C800001F049FC26208DF8000001208DF80300BA
:100C900000208DF801008DF80200684600F069F828
:100CA00006B010BD2DE9F04107460C46154600265A
:100CB0000DE014F8011B384601F08EFC00BF402106
:100CC000384601F0F7FC0028F9D0701C86B2AE421D
:100CD000EFDBBDE8F0810FB430B5CBB0054601AC19
:100CE00050A800904FF4947101A8009B4F9A03F014
:100CF0000FFD002000900BE014F8011B284601F0C6
:100D00006BFC00BF4021284601F0D4FC0028F9D03C
:100D100020780028F0D14BB030BC5DF814FB10B542
:100D200040F22551054801F0DBFC18B120210348B1
:100D300001F0CDFC10BD000000080140003801406A
:100D4000004400400648804706480047FEE7FEE7AB
:100D5000FEE7FEE7FEE7FEE7FEE7FEE7FEE7FEE76B
:100D6000270300083101000831490143314A11606D
:100D7000704770B5002100230F22C47804B32D4CB6
:100D8000246804F4E064C4F5E064210AC1F10403BA
:100D9000CA40447804FA03F18478144021430901DD
:100DA000254C0678A155047804F01F050124AC40B9
:100DB00005786D11AD0005F1E025C5F8004109E0A9
:100DC000047804F01F050124AC401C4D0678761110
:100DD00045F8264070BD1A4A0A400243154B1B1FB6
:100DE0001A60704739B1134A121D12680243114B41
:100DF0001B1D1A6006E00F4A121D126882430D4B3C
:100E00001B1D1A607047042808D14FF0E0210969C2
:100E100041F004014FF0E022116107E04FF0E021C2
:100E2000096921F004014FF0E022116170470000D0
:100E30000000FA050CED00E000E400E080E100E0D5
:100E400080FFFF1F10B50446CC48844208D1012121
:100E5000042000F02DFB0021042000F029FB46E0D7
:100E6000C748844208D10121082000F021FB00215D
:100E7000082000F01DFB3AE0C248844208D101215D
:100E8000102000F015FB0021102000F011FB2EE0D7
:100E9000BD48844208D10121202000F009FB002137
:100EA000202000F005FB22E0B848844208D101214F
:100EB000402000F0FDFA0021402000F0F9FA16E091
:100EC000B348844208D10121802000F0F1FA0021CA
:100ED000802000F0EDFA0AE0AE48844207D10121FB
:100EE000801500F0E5FA0021A01500F0E1FA10BD30
:100EF00010B50121084600F0DBFA0021012000F0C6
:100F0000D7FA10BD2DE9F041024600250026002049
:100F100000230024002791F803C00CF00F0591F87E
:100F200003C00CF0100CBCF1000F03D091F802C00C
:100F30004CEA050591F800C0BCF1000F31D01468EF
:100F400000202BE04FF0010C0CFA00F3B1F800C0C8
:100F50000CEA03069E4220D183004FF00F0C0CFADE
:100F600003F7BC4305FA03FC4CEA040491F803C000
:100F7000BCF1280F06D14FF0010C0CFA00FCC2F8AE
:100F800014C00AE091F803C0BCF1480F05D14FF03E
:100F9000010C0CFA00FCC2F810C0401C0828D1D388
:100FA0001460B1F800C0BCF1FF0F34DD54680020BC
:100FB0002EE000F1080C4FF0010808FA0CF3B1F82C
:100FC00000C00CEA03069E4221D183004FF00F0CB3
:100FD0000CFA03F7BC4305FA03FC4CEA040491F84D
:100FE00003C0BCF1280F05D100F1080C08FA0CF879
:100FF000C2F8148091F803C0BCF1480F07D100F18A
:10100000080C4FF0010808FA0CF8C2F81080401CD8
:101010000828CED35460BDE8F0814FF6FF710180FF
:10102000022181700421C17070470246002093683C
:101030000B400BB1012000E000207047014688689A
:1010400080B2704702460020D3680B400BB10120EC
:1010500000E0002070470146C86880B27047016117
:101060007047416170470AB1016100E0416170471A
:10107000C16070474FF480320A43826181618261AE
:1010800082698269704702460020434B18684FF618
:101090008073184040EA021008433F4B18607047C5
:1010A0003E49C8617047F0B50A460023002400217C
:1010B000002500F00046B6F1004F02D1364EF1692E
:1010C00001E0354E7168C0F3034583B200F4401669
:1010D000B6F5401F08D121F070612F4E766826F0DA
:1010E00070662D4F7E6012E000F48016B6F5801F0A
:1010F00006D1032606FA05F4A14341F0706106E02B
:10110000460D360103FA06F6B14341F0706122B193
:10111000460D360103FA06F6314300F00046B6F1FB
:10112000004F02D11C4EF16101E01B4E7160F0BD19
:1011300030B500228B071C0F0F2303FA04F2164B65
:1011400008338C1053F824309343134C08348D101B
:1011500044F8253023468C1053F824308C07240F94
:1011600000FA04F423430C4C08348D1044F8253065
:1011700030BD0A49DC3108607047000000080140BA
:10118000000C014000100140001401400018014013
:10119000001C0140002001400000014000002042EE
:1011A000DF48006840F00100DD49086008464068FB
:1011B000DC490840DA49486008460068DA490840D6
:1011C000D74908600846006820F480200860084677
:1011D000406820F4FE0048604FF41F0088607047AC
:1011E000CF49096821F48031CD4A11601146096860
:1011F00021F480211160B0F5803F03D0B0F5802F3D
:101200000ED106E0C649096841F48031C44A116034
:1012100007E0C349096841F4A021C14A116000E018
:1012200000BF00BF704710B5014600220023002018
:101230004A11012A02D1BA4C236806E0022A02D1DF
:10124000B74C236A01E0B64C636A01F01F02012427
:1012500094401C400CB1012000E0002010BD38B5C6
:10126000002000900024002500BF3120FFF7DBFFA5
:1012700005460098401C00900098B0F5A06F01D082
:10128000002DF2D03120FFF7CEFF08B1012400E09D
:101290000024204638BD01460020A14A106820F0F5
:1012A000F80040EAC10010607047A049086070472C
:1012B000024600209A4B586820F47C1042EA010351
:1012C0001843974B58607047984908667047014625
:1012D0000020934A506820F0030008435060704794
:1012E0008F48406800F00C007047014600208C4A8F
:1012F000506820F0F000084350607047014600201D
:10130000874A506820F4E060084350607047014607
:101310000020834A506820F4605040EAC1005060C9
:10132000704729B17E4A527A02437D4B5A7204E0DB
:101330007B4A527A82437A4B5A7270477B49D83142
:101340000860704701460020754A506820F440400C
:101350000843506070470021714A20321170704A72
:1013600082F82010012802D004280AD104E00121CB
:101370006B4A2032117005E00521694A2032117054
:1013800000E000BF00BF70476949086070476449CA
:10139000096A0143624A116270476549443908602D
:1013A000704730B500210022002400235C4D6D6899
:1013B00005F00C0121B1042905D0082923D105E04D
:1013C0005C4D056022E05B4D05601FE0544D6D688B
:1013D00005F47012524D6D6805F48034022505EB5A
:1013E00092421CB9544D554305600BE04C4D6D685D
:1013F00005F400351DB1504D5543056002E04D4DDB
:101400005543056002E04B4D056000BF00BF444DF1
:101410006D6805F0F0010909484D6B5C0568DD4019
:1014200045603F4D6D6805F4E061090A434D6B5C12
:101430004568DD4085603A4D6D6805F46051C90A24
:101440003E4D6B5C4568DD40C560354D6D6805F40B
:101450004041890B3A4D6B5CC568B5FBF3F50561FE
:1014600030BD29B12E4A526902432D4B5A6104E026
:101470002B4A526982432A4B5A61704729B1284A44
:1014800092690243264B9A6104E0254A926982439D
:10149000234B9A61704729B1214AD2690243204BFC
:1014A000DA6104E01E4AD26982431D4BDA6170475B
:1014B00029B11B4AD2680243194BDA6004E0184A8A
:1014C000D2688243164BDA60704729B1144A126918
:1014D0000243134B1A6104E0114A12698243104B14
:1014E0001A61704712494039086070470F49C86453
:1014F00070470B49C87170470948406A40F08070D6
:1015000007494862704701460020054A92680A4030
:101510000AB1012000E0002070470149887270473D
:10152000001002400000FFF8FFFFF6FE00004242FC
:101530008004424200127A0000093D002A00002087
:101540003A00002010B50446FE48844208D101212B
:10155000C014FFF7ADFF0021E014FFF7A9FFC4E0BE
:10156000B4F1804F08D101210846FFF7AEFF0021FA
:101570000120FFF7AAFFB8E0F348844208D1012117
:101580000220FFF7A2FF00210220FFF79EFFACE040
:10159000EE48844208D101210420FFF796FF002184
:1015A0000420FFF792FFA0E0E948844208D101211E
:1015B0000820FFF78AFF00210820FFF786FF94E04C
:1015C000E448844208D101211020FFF77EFF00216A
:1015D0001020FFF77AFF88E0DF48844208D101211C
:1015E0002020FFF772FF00212020FFF76EFF7CE034
:1015F000DA48844208D101214014FFF759FF002145
:101600006014FFF755FF70E0D548844209D10121ED
:10161000C804FFF74DFF00214FF40020FFF748FFFB
:1016200063E0D048844209D101210805FFF740FF5B
:1016300000214FF48010FFF73BFF56E0CA48844278
:1016400009D101214805FFF733FF00214FF40010B5
:10165000FFF72EFF49E0C548844208D10121402010
:10166000FFF733FF00214020FFF72FFF3DE0C04888
:10167000844208D101218020FFF727FF002180202C
:10168000FFF723FF31E0BB48844208D101218015D8
:10169000FFF71BFF0021A015FFF717FF25E0B64855
:1016A000844209D101210804FFF702FF00214FF411
:1016B0008030FFF7FDFE18E0B048844209D10121D7
:1016C0004804FFF7F5FE00214FF40030FFF7F0FE6D
:1016D0000BE0AB48844208D101218804FFF7E8FE03
:1016E00000214FF48020FFF7E3FE10BD00220288A6
:1016F000944B98420ED0994B98420BD0B0F1804F4A
:1017000008D0914B984205D0904B984202D0904B14
:10171000984204D14FF68F731A404B881A438D4B71
:10172000984207D08C4B984204D04FF6FF431A40A2
:10173000CB881A4302808B8883850B880385814B75
:1017400098420BD0854B984208D08B4B984205D0DD
:101750008A4B984202D08A4B984201D10B7A038679
:1017600001238382704770B5002400220023058C7A
:101770004FF6FE7635400584028C8388048B4FF645
:101780008F752C40B51E2C400D882C43751E2A40A9
:101790000D892A434D882A436A4DA8420BD06F4DCC
:1017A000A84208D0744DA84205D0744DA84202D07A
:1017B000734DA84213D14FF6F7752A404D892A433D
:1017C0004FF6FB752A408D882A434FF6FF652B4064
:1017D0004FF6FF552B408D892B43CD892B438380BA
:1017E0000483CD888586028470BD70B500240022F4
:1017F0000023058C4FF6EF7635400584028C8388F4
:10180000048B48F6FF752C404FF6FF452C400D88A1
:101810004FF6FF7606EA05252C434FF6DF752A4082
:101820000D8906EA05152A434D8806EA05152A435F
:10183000444DA84202D0494DA8421DD14FF67F75B4
:101840002A404D894FF6FF7606EA05152A434FF6E2
:10185000BF752A408D8806EA05152A434FF6FF35E5
:101860002B404FF2FF752B408D8906EA85052B43EF
:10187000CD8906EA85052B4383800483CD880587BF
:10188000028470BD70B5002400220023058C4FF641
:10189000FF6635400584028C8388848B4FF68F75F4
:1018A0002C404FF6FC752C400D882C434FF6FF550D
:1018B0002A400D894FF6FF7606EA05252A434D8812
:1018C00006EA05252A431F4DA84202D0234DA8420F
:1018D0001DD14FF2FF752A404D894FF6FF7606EA7B
:1018E00005252A434FF6FF352A408D8806EA05254F
:1018F0002A434EF6FF752B404DF6FF752B408D8920
:1019000006EA05152B43CD8906EA05152B4383808E
:101910008483CD888587028470BD70B50022002342
:101920000024058C4EF6FF7635400584038C8488B0
:10193000828B48F6FF752A404FF6FF452A400D88F6
:1019400020E00000002C014000040040000800409E
:10195000000C004000100040001400400034014022
:10196000004C01400050014000540140001800406C
:10197000001C0040002000400040014000440140A5
:10198000004801404FF6FF7606EA05252A434DF64A
:10199000FF752B400D8906EA05352B434D8806EA75
:1019A00005352B43FA4DA84202D0FA4DA84208D182
:1019B0004BF6FF752C408D894FF6FF7606EA8515AC
:1019C0002C4384808283CD88A0F84050038470BD6E
:1019D000828B4FF2FF331A408283828B4FF6FF7364
:1019E00003EA01231A4382837047F0B50C4615467B
:1019F000002200210026078C4EF6FF7C07EA0C0728
:101A00000784828B018C4FF6FF7707EA043640F695
:101A1000FF473A404FF6FF7707EA05273A434FF66C
:101A2000FF7707EA03373A43D94FB8420ED0D94F70
:101A3000B8420BD0B0F1804F08D0D74FB84205D094
:101A4000D64FB84202D0D64FB84206D14DF6FF77F6
:101A5000394046F48057394305E047F6FF5739408F
:101A600044F48057394382830184F0BD828B4FF662
:101A7000F3731A408283828B0A4382837047F0B5E6
:101A80000C461546002200210026078C4FF6FF6CFD
:101A900007EA0C070784828B018C4FF6FF7707EA71
:101AA00004264FF60C773A404FF6FF7707EA031704
:101AB0002F433A43B64FB8420ED0B64FB8420BD080
:101AC000B0F1804F08D0B44FB84205D0B34FB84200
:101AD00002D0B34FB84206D14FF6FF57394046F413
:101AE0008077394305E04FF2FF57394044F480775F
:101AF000394382830184F0BD028B4FF2FF331A40D9
:101B00000283028B4FF6FF7303EA01231A43028319
:101B10007047F0B50C461546002200210026078CC0
:101B20004FF6EF7C07EA0C070784028B018C4FF617
:101B3000FF7707EA041640F6FF473A404FF6FF7773
:101B400007EA03373A434FF6FF7707EA05273A4398
:101B50008F4FB8420ED08F4FB8420BD0B0F1804FAC
:101B600008D08D4FB84205D08C4FB84202D08C4F70
:101B7000B84206D14FF6DF77394046F010073943B7
:101B800005E04FF65F77394044F010073943028390
:101B90000184F0BD028B4FF6F3731A400283028B6F
:101BA0000A4302837047F0B50C4615460022002117
:101BB000068C4FF6FE773E400684028B018C4FF672
:101BC0000C7632407E1C06EA03162E433243704EDA
:101BD000B0420ED06F4EB0420BD0B0F1804F08D063
:101BE0006D4EB04205D06D4EB04202D06C4EB04248
:101BF00006D14FF6FD76314044F00106314305E051
:101C00004FF6F576314044F00106314302830184FA
:101C1000F0BD70B505460C465D4885420ED05D4866
:101C200085420BD0B5F1804F08D05B48854205D086
:101C30005A48854202D05A48854200D100E000BF90
:101C4000208850B92389A28861882846FFF7ABFF16
:101C5000E1882846FFF79EFF25E0208804280AD166
:101C60002389A28861882846FFF753FFE188284628
:101C7000FFF742FF17E0208808280AD12389A288AD
:101C800061882846FFF7FBFEE1882846FFF7EEFE55
:101C900009E02389A28861882846FFF7A6FEE1882B
:101CA0002846FFF795FE70BD2DE9F04105460C462C
:101CB00000260127608808B9022600E00026A088D7
:101CC000012801D1022700E001272088A0B923893B
:101CD000A28861882846FFF766FFE1882846FFF75B
:101CE00059FF23893A4631462846FFF712FFE1881B
:101CF0002846FFF701FF13E02389A2886188284660
:101D0000FFF707FFE1882846FFF7F6FE23893A46EA
:101D100031462846FFF747FFE1882846FFF73AFF9C
:101D2000BDE8F0810A884B881A438B881A43CB8818
:101D30001A430B891A434B891A438B891A43A0F81B
:101D4000442070474FF6FF71818000210180C180DF
:101D50004180017270470021018041808180C180F3
:101D6000018141818181C1817047002101804180D1
:101D7000012181800021C180018170470021018003
:101D800041808180C1800181418181817047000053
:101D9000002C0140003401400004004000080040D5
:101DA000000C004021B1028842F00102028004E0F0
:101DB00002884FF6FE731A400280704731B1B0F8C6
:101DC000442042F40042A0F8442005E0B0F844204A
:101DD000C2F30E02A0F8442070471AB183890B4366
:101DE000838102E083898B438381704781827047BE
:101DF00041EA0203A0F8483070471AB183890B43C7
:101E0000838102E083898B438381704701894FF688
:101E1000F8721140018170470A46002101894FF68E
:101E20008F73194011430181704730B504460D4648
:101E300029462046FFF7F0FF208940F00700208167
:101E400030BD2DE9F04104460D4616461F46602D73
:101E500006D13B46012231462046FFF75AFE05E0F7
:101E60003B46012231462046FFF79DFE294620468B
:101E7000FFF7D2FF208940F007002081BDE8F08104
:101E800030B50C4600210189C9B24FF6FF7505EA4D
:101E90000325154325432943018130BD2DE9F04138
:101EA00005460E4617469846002443463A463146B4
:101EB0002846FFF7E5FF2C894FF6F870044044F000
:101EC00007044FF68F70044044F070042C81BDE885
:101ED000F081F0B504460D4616461F463B46324695
:101EE00029462046FFF7CCFF208940F4804020811E
:101EF000F0BD0185828270470A46002101884FF6B5
:101F00008F731940114301807047F0B50C46154698
:101F10001E460021002200230189028B038C4FF60C
:101F2000F877394021434FF6FC473A4040F2011719
:101F30003A434FF6DD773B404FF6FF7707EA061747
:101F40002F433B43018102830384F0BD0A460021F5
:101F5000018B4FF68F7319401143018370470A4676
:101F60000021018B48F6FF7319404FF6FF7303EA17
:101F700002231943018370470A460021818B4FF6E3
:101F80008F7319401143818370470A460021818B6A
:101F900048F6FF7319404FF6FF7303EA0223194313
:101FA0008183704721B1028842F08002028004E000
:101FB00002884FF67F731A400280704721B18288F1
:101FC00042F00402828004E082884FF6FB731A40DC
:101FD0008280704721B1828842F00802828004E04A
:101FE00082884FF6F7731A408280704721B1828849
:101FF00042F00102828004E082884FF6FE731A40AC
:10200000828070470A460021018B4FF6F773194012
:102010001143018370470A460021018B4FF2FF7381
:1020200019404FF6FF7303EA0223194301837047F7
:102030000A460021818B4FF6F773194011438183C3
:1020400070470A460021818B4FF2FF7319404FF60B
:10205000FF7303EA02231943818370470A46002174
:10206000018B4FF6FB7319401143018370470A46F9
:102070000021018B4FF6FF3319404FF6FF7303EA3F
:1020800002231943018370470A460021818B4FF6D2
:10209000FB7319401143818370470A460021818BED
:1020A0004FF6FF3319404FF6FF7303EA022319433B
:1020B000818370470A460021018B4FF67F731940D8
:1020C0001143018370470A460021018BC1F30E01C1
:1020D0004FF6FF7303EA02231943018370470A4650
:1020E0000021818B4FF67F73194011438183704724
:1020F0000A460021818BC1F30E014FF6FF7303EAFC
:1021000002231943818370470A460021018C4FF650
:10211000FD7319401143018470470A460021018C68
:102120004FF6F77319401143018470470A460021A6
:10213000018C4FF6DF7319404FF6FF7303EA021369
:102140001943018470470A460021018C4FF67F73C2
:1021500019404FF6FF7303EA0213194301847047D5
:102160000A460021018C4FF6FF5319404FF6FF73CA
:1021700003EA02231943018470470A460021018CB7
:102180004FF2FF7319404FF6FF7303EA022319431E
:10219000018470470A460021018C4DF6FF731940F7
:1021A0004FF6FF7303EA023319430184704730B5D9
:1021B000002301248C40A3B2048C9C430484048C2F
:1021C00002FA01F5ADB22C43048430BD30B50023D2
:1021D00004248C40A3B2048C9C430484048C02FA33
:1021E00001F5ADB22C43048430BD70B50346002028
:1021F00000241846183001258D40ACB21D8CA54333
:102200001D8409B1082909D100EB6100056825F09A
:10221000700505600568154305600EE00D1FC5F3E8
:102220004E052844056825F4E045056005684FF62D
:10223000FF7606EA02263543056070BD21B10288AB
:1022400042F00202028004E002884FF6FD731A4059
:102250000280704721B1028842F00402028004E04B
:1022600002884FF6FB731A400280704721B18288C2
:1022700042F08002828004E082884FF67F731A4029
:102280008280704702884FF6F7731A4002800288F6
:102290000A430280704782884FF68F731A4082800B
:1022A00082880A438280704702894FF6F8731A4089
:1022B000028102890A430281704702894FF67F73C7
:1022C0001A40028102890A43028170478184704763
:1022D0008185704781867047018770478187704785
:1022E000A0F84010704702884FF6FF431A40028062
:1022F00002880A43028070470146888E7047014673
:10230000088F70470146888F70470146B1F840003A
:1023100070470146888C70470146088D7047024619
:102320000020138A0B400BB1012000E00020704711
:10233000CA430282704730B50246002000230024C1
:10234000158A05EA0103958905EA010413B10CB168
:10235000012000E0002030BDCA4302827047000027
:1023600010B50446FB48844209D101218803FFF7D8
:102370009FF800214FF48040FFF79AF832E0F648CA
:10238000844209D101214804FFF79FF800214FF44E
:102390000030FFF79AF825E0F048844209D1012186
:1023A0008804FFF792F800214FF48020FFF78DF8A2
:1023B00018E0EB48844209D10121C804FFF785F8F1
:1023C00000214FF40020FFF780F80BE0E54884423D
:1023D00008D101210805FFF778F800214FF480109B
:1023E000FFF773F810BD2DE9F04786B005460E469D
:1023F0000024A24600BFA1460027B08900B100BF5B
:102400002F462C8A4CF6FF700440F08804432C823F
:10241000AC894EF6F3100440B088318908437189C5
:1024200008430443AC81AC8A4FF6FF400440B089B6
:102430000443AC8201A8FEF7B4FFC648874202D12C
:10244000DDF810A001E0DDF80CA0A88900F4004040
:1024500040B10AEBCA0000EB0A1031684900B0FB3A
:10246000F1F807E00AEBCA0000EB0A1031688900B6
:10247000B0FBF1F86420B8FBF0F0040120096421FE
:1024800001FB1089A88900F4004040B1322000EB24
:10249000C900B0FBF1F000F00700044308E032206F
:1024A00000EB09106421B0FBF1F000F00F000443D1
:1024B0002C8106B0BDE8F0874FF416510160002171
:1024C0008180C18001810C2141810021818170477F
:1024D00010B502460020108A4FF2FF0318400B8807
:1024E0004C8823438C882343CC8823431843108291
:1024F00010BD0021018041808180C180704721B1E1
:10250000828942F40052828104E082894DF6FF7391
:102510001A4082817047F0B503460024002600254A
:10252000002040F66A17B94200D100BF1846C1F337
:10253000421401F01F06012707FA06F5012C01D10C
:102540000C3004E0022C01D1103000E014301AB13C
:1025500007682F43076002E00768AF430760F0BDDC
:102560001AB1838A0B43838202E0838A8B4383827E
:102570007047028A4FF6F0731A400282028A0A43B9
:102580000282704782894FF2FF731A4082818289EA
:102590000A438281704721B1828942F0020282811E
:1025A00004E082894FF6FD731A4082817047028AE7
:1025B0004FF6DF731A400282028A0A430282704792
:1025C00021B1028A42F48042028204E0028A4BF680
:1025D000FF731A4002827047C1F30802828070477D
:1025E00001468888C0F308007047818941F00101E5
:1025F00081817047028BD2B20283028B42EA0122B0
:1026000002837047028B02F47F420283028B0A43EB
:102610000283704721B1828A42F02002828204E064
:10262000828A4FF6DF731A408282704721B1828A14
:1026300042F01002828204E0828A4FF6EF731A4061
:102640008282704721B1828A42F00802828204E0CD
:10265000828A4FF6F7731A408282704721B18289CD
:1026600042F40042828103E08289C2F30E02828139
:10267000704721B1828A42F40062828204E0828A39
:102680004FF2FF731A4082827047828A4FF6FB73C3
:102690001A408282828A0A438282704721B1828AEA
:1026A00042F00202828204E0828A4FF6FD731A40F1
:1026B0008282704702460020B1F5007F00D100BF42
:1026C00013880B400BB1012000E00020704701F49B
:1026D0000072B2F5007F00D100BFCA43028070478C
:1026E00070B50246002400230025002040F66A163B
:1026F000B14200D100BFC1F3421501F01F03012612
:1027000006FA03F3012D02D19689334006E0022D2B
:1027100002D1168A334001E0968A33400C1201261A
:1027200006FA04F41688344013B10CB1012000E01D
:10273000002070BD10B50022002340F66A14A142AB
:1027400000D100BF0A1201249440A3B2DC430480EC
:1027500010BD000000380140004400400048004027
:10276000004C00400050004010B58021914801F01D
:102770004EFB00209049088010BD8F48008808B9A2
:10278000012070478C4800888C490988884203D111
:10279000002089490880F4E7874800888749088035
:1027A0000120EEE72DE9F04104460D46C8262046FB
:1027B00001F060FB87B23A4621468148FEF772FA83
:1027C0000FE0FFF7DAFF48B929467A4801F036FBF7
:1027D00020B1FFF7C9FF0020BDE8F0810A20FEF715
:1027E0008AF9301EA6F10101CEB2EAD10120F3E749
:1027F00030B589B004460D46FFF7B6FF2A4671A1F1
:1028000001A801F071FF73A101A8FFF7CBFF20B968
:102810002A4621466A48FEF745FA09B030BD70B530
:102820000546002400BFFFF7A8FF80B96AA16148F0
:1028300001F004FB044654B13A21204601F010FB9C
:10284000044614B1641C204670BD0020FCE705203E
:10285000FEF751F9681E85B2002DE4DC0020F3E795
:1028600008B501210420FEF709FE10208DF80300B1
:102870008002ADF8000003208DF802006946584838
:10288000FEF740FB00224FF480415548FEF7EBFB7A
:10289000FA20FEF730F9012291035148FEF7E3FBDD
:1028A0004FF4FA70FEF727F9FFF75EFF4DA14F488E
:1028B000FEF711FA03E04FF4FA70FEF71CF94CA191
:1028C0004CA0FFF76FFF0028F5D14CA14748FEF759
:1028D00002FA42A14CA0FFF765FF4FF4FA70FEF731
:1028E0000AF93EA14BA0FFF75DFF4FF4FA70FEF727
:1028F00002F94CA13D48FEF7EEF903E04FF4FA70FF
:10290000FEF7F9F83AA14AA0FFF74CFF0028F5D1ED
:102910004BA13648FEF7DFF903E04FF4FA70FEF7FB
:10292000EAF833A14AA0FFF73DFF0028F5D14CA1FA
:102930002E48FEF7D0F903E04FF4FA70FEF7DBF80B
:102940004AA14CA0FFF72EFF0028F5D153A127483C
:10295000FEF7C1F903E04FF4FA70FEF7CCF853A18B
:1029600054A0FFF71FFF0028F5D15DA11F48FEF717
:10297000B2F908BD10B540F225511148FFF7B0FE7D
:10298000B0B10D480088802802D300200A49088091
:102990000B48001D0088C1B2074802880088401C0F
:1029A000054B18800348815420210548FFF78FFE0E
:1029B00010BD0000500000203E000020400000201C
:1029C0000044004041542B43495053454E443D255B
:1029D000640D0A003E0000004950442C0000000035
:1029E00000100140302E2041540D0A0000380140F3
:1029F0004F4B000041540D0A00000000312E2052C0
:102A000053540D0A0000000041542B5253540D0A38
:102A10000000000041542B434950434C4F53450D97
:102A20000A000000322E2043574D4F44450D0A0046
:102A300041542B43574D4F44453D310D0A00000092
:102A4000332E2041542B4357444843500D0A000075
:102A500041542B4357444843503D312C310D0A001B
:102A6000342E2043574A41500D0A0000474F54204E
:102A70004950000041542B43574A41503D22476979
:102A80007A2D474167656E742D585858222C223193
:102A90003233343536373839220D0A00352E20438B
:102AA000495053544152540D0A000000434F4E4EBA
:102AB0004543540041542B43495053544152543DD3
:102AC00022544350222C223138332E3233302E34CC
:102AD000302E3339222C363030320D0A00000000FF
:102AE000362E204553503832363620496E697420D0
:102AF0004F4B0D0A0000000070B504460E4600253D
:102B0000206898B901202073304602F0ADFA2060A9
:102B10002068E0B100206060A66003E0002021682A
:102B200048556D1CA068A842F8D810E00220207318
:102B300003E00020216848556D1CA068A842F8D821
:102B400000206060A068B04201D20020206070BD0B
:102B500010B50446207B012802D1206802F05CFAFF
:102B6000002020606060A060207310BD024600233A
:102B700001230DE002F07F000870D2092AB1087825
:102B800040F080000870491C01E0184670475B1C4B
:102B9000042BEFDD4FF0FF30F8E7F0B504460D46AB
:102BA0002646012300201060002114E0775C07F026
:102BB0007F07106807FB03001060705C00F0800066
:102BC00008B9481CF0BDDB01B3F5001F02D36FF05C
:102BD0000100F7E7491CA942E8DB4FF0FF30F1E7BD
:102BE000F8B50446FF2720780511012D01DB0E2DD5
:102BF00001DD3846F8BD032D24D1002000906A463F
:102C00000421601CFFF7C9FF2044461C00980228DD
:102C100003D3207800F0010008B1FF20EAE77078C4
:102C2000317840EA0120801C0099884201D9FF20B8
:102C3000E0E7F8A1B01C01F001F908B10F2700E0AE
:102C4000032700E02F463846D4E72DE9FF4F83B035
:102C500082468B469146159C0025002002900F2746
:102C60000190484601F006F90FFA80F8B9F1000F1B
:102C700003D1012007B0BDE8F08F08F1020038440D
:102C800087B2109808B145F00205129878B145F066
:102C90000405129801F0EEF8C0B20290139801F00A
:102CA000E9F801460298001D0844384487B211989B
:102CB00020B1012804D0022808D104E000BF07E0B9
:102CC00045F00C0504E045F0140501E00220D1E7D1
:102CD00000BF149808B145F02405BAF1000F02D0E6
:102CE000BBF1000F01D10320C4E745F0C0055046F9
:102CF00001F0C0F80646584601F0BCF83044001D0B
:102D0000384487B239462046FFF7F6FE206808B9F6
:102D10000420AFE73946206801F079F81021626895
:102D2000501C606020688154D4E90023D118781FBA
:102D3000FFF71CFF00B201900198002804DA20463A
:102D4000FFF706FF052095E7616801980844606079
:102D500000216268501C6060206881540421626810
:102D6000501C6060206881544D216268501C606076
:102D70002068815451216268501C60602068815431
:102D800054216268501C6060206881546268501C45
:102D900060602068815404216268501C6060206873
:102DA00081546168481C6060206845540698010A97
:102DB0006268501C6060206881540698C1B26268E5
:102DC000501C606020688154C8F307216268501C61
:102DD0006060206881546268501C6060206800F860
:102DE0000280D4E9001288184246494601F049F8A9
:102DF00060684044606005F00400B8B30026139892
:102E000008B986A01390129801F034F886B2310AFE
:102E10006268501C6060206881546268501C606069
:102E200020688654D4E9001288183246129901F0BD
:102E300028F8606830446060139801F01BF886B28F
:102E4000310A6268501C6060206881546268501CBE
:102E5000606020688654D4E90012881832461399BD
:102E600001F00FF860683044606000BF05F080003A
:102E7000C8B1504600F0FEFF86B2310A6268501CAD
:102E80006060206881546268501C606020688654CD
:102E9000D4E9001288183246514600F0F2FF60680B
:102EA0003044606000BF05F04000C8B1584600F0F3
:102EB000E1FF86B2310A6268501C6060206881546C
:102EC0006268501C606020688654D4E9001288183B
:102ED0003246594600F0D5FF60683044606000BF5C
:102EE0000020C7E610B5044602212046FFF704FE85
:102EF000206808B9012010BDE0216268501C6060A4
:102F00002068815400216268501C606020688154F0
:102F10000020F0E701464878022801D001207047E0
:102F2000887810B18878012801D1C878F7E7FF20A8
:102F3000F5E72DE9FF4F83B0834617469946139C6A
:102F4000002500260020029001908046BBF1000F72
:102F500003D1012007B0BDE8F08F00260AE00498F5
:102F6000805D232803D00498805D2B2801D10220A6
:102F7000F0E7761C0498805D0028F0D148F0300816
:102F8000119808B148F0010806EB0900851C10985B
:102F900020B1012804D002280AD105E000BF09E0D1
:102FA00048F00208AD1C05E048F00408AD1C01E043
:102FB0000320CFE700BF67B33878022821D14FF054
:102FC000000A00BF50460AF1010A385C7D28F9D199
:102FD000AAF1030A0AF1070002900298A9EB000A7D
:102FE000E81CA0EB0A012046FFF786FD206808B91F
:102FF0000420AFE7EA1CA2EB0A01206800F007FFFB
:103000001FE0691D2046FFF777FD206840B90420C6
:10301000A0E70AE024637265710000000000000070
:10302000691D206800F0F3FE0BE0691D2046FFF7E4
:1030300063FD206808B904208CE7691D206800F052
:10304000E6FE6168481C6060206800F80180D4E9F1
:10305000000281182846FFF789FD01900198002899
:1030600004DA2046FFF774FD052073E761680198D4
:1030700008446060C6F307216268501C60602068E5
:1030800081546268501C606020688654D4E9001244
:1030900088183246049900F0F4FE6068304460609D
:1030A000109860B14FEA1B216268501C6060206874
:1030B00081546268501C6060206800F802B0C7B19B
:1030C000387802280BD1D4E9001288183946029AC0
:1030D00000F084FE616802980844606009E0D4E969
:1030E000001288184A46394600F078FE6068484465
:1030F000606000202EE72DE9FF4107460D4690460F
:103100001E460A9C01200021CDE90001EB1C0A4665
:10311000FAA1CDE902040A20FFF70BFF88B9616824
:10312000481C606020684654C5F307216268501C43
:103130006060206881546268501C6060206885541B
:1031400003E0012004B0BDE8F0810020FAE72DE99A
:10315000F04F85B080460D4691460120049000272F
:10316000002600244FF0000A404600F083FE00F1E4
:103170000D0B584601F078FF07461FB9049805B0BB
:10318000BDE8F08F4246DEA1384601F0ADFA384680
:1031900000F070FEC6B2F01D00EB050AAAEB0500B8
:1031A00001F062FF044624B9384601F035FF049867
:1031B000E5E70220207000206070A6703246394694
:1031C000E01C00F00BFE290EF01C2154C5F3074152
:1031D000301D2154C5F30721701D2154B01D255405
:1031E00001200021CDE9000153462246C3A1CDE9CB
:1031F00002090A20FFF79DFE08B900200490384616
:1032000001F00AFF204601F007FF0498B7E72DE917
:10321000F84380460C4615461E462F2108F106004D
:1032200000F01EFE07460020009017B90120BDE8FF
:10323000F8837F1C6A46042108F10100FFF7ADFC0A
:10324000252001F011FF2060206808B90220EEE778
:103250002521206800F0DBFD24223946206800F09B
:10326000BDFD243700982C3830803188481C01F08F
:10327000FBFE2860286820B9206801F0CDFE0320FD
:10328000D5E73288511C286800F0C1FD32883946E4
:10329000286800F0A3FD0020C9E72DE9FF5F07467D
:1032A0000D469046384600F0E5FD86B2284600F00F
:1032B000E1FD1FFA80FA4FF00009F01D01F0D4FE85
:1032C00004461CB9012004B0BDE8F09FF11D204662
:1032D00000F09DFD8EA0016821608088A0803246AC
:1032E0003946204600F0CDFD284600F0C3FD834658
:1032F0000120002100915B462A46CDE90208019198
:1033000021460A20FFF715FE10B94FF0000901E031
:103310004FF00109204601F07FFE4846D3E72DE932
:10332000FF5F8046174699460E9C0026B246B3467C
:103330000025B8F1000F03D1012004B0BDE8F09FD3
:103340000BE057F8250008B90220F6E757F82500EA
:1033500000F090FD0644681CC5B24D45F1DB09EB59
:103360004900801C00EB060A0AF105012046FFF720
:10337000C3FB206808B90320DFE782216268501C84
:10338000606020688154D4E9000281185046FFF73C
:10339000EDFB0FFA80FBBBF1000F04DA2046FFF7CC
:1033A000D7FB0420C9E76068584460604FEA1821E1
:1033B0006268501C6060206881546268501C6060C4
:1033C000206800F80280002524E057F8250000F06E
:1033D00051FD0646C6F307216268501C60602068F4
:1033E00081546268501C606020688654D4E90023D0
:1033F000D01857F82510324600F043FD606830447D
:1034000060600198C1B26268501C6060206881549D
:10341000681CC5B24D45D8DB00208EE70146FF2071
:103420008A78A2B9CA78142A11D10A7932B1012A4C
:1034300005D0022A04D0802A06D103E000BF00BFD5
:10344000002003E0012001E0022000BF00BF704720
:103450002DE9F05F80460F4691461C460026B24695
:10346000B3460025B8F1000F02D10120BDE8F09F5E
:103470000BE057F8250008B90220F7E757F82500B8
:1034800000F0F8FC0644681CC5B24D45F1DB022093
:1034900000EB490000EB060A0AF105012046FFF7A0
:1034A0002BFB206808B90320E0E7A2216268501CCA
:1034B000606020688154D4E9000281185046FFF70B
:1034C00055FB0FFA80FBBBF1000F04DA2046FFF733
:1034D0003FFB0420CAE76068584460604FEA182147
:1034E0006268501C6060206881546268501C606093
:1034F000206800F8028000252CE0000024647000A1
:103500007B2264735F6964223A222573227D000066
:1035100024637273702F000057F8250000F0AAFC96
:103520000646C6F307216268501C6060206881541B
:103530006268501C606020688654D4E90023D0186B
:1035400057F82510324600F09CFC606830446060FB
:10355000681CC5B24D45DFDB002087E7014601202E
:103560008A781AB9CA781E2A00D1002070472DE93E
:10357000FC5F81460D4614461E46DDE90C8B99F82A
:10358000000000F00F0A002001900AF008000090EF
:10359000CAF341008BF8000001AA042109F10100DF
:1035A000FFF7FBFA4844471C0198022802D30AF0AF
:1035B000010010B1FF20BDE8FC9F7878397840EA1F
:1035C000012020802088801C0199884201D9FF2099
:1035D000F1E7AFF2C051B81C00F030FC08B10F2089
:1035E000E9E79BF8000020B101283DD0022877D1FF
:1035F0003BE0009808B1FF20DDE72188481C01F07E
:1036000033FD2860286808B9FF20D4E72288511CC0
:10361000286800F0FCFB2288B91C286800F0DEFB5B
:103620000198801E2188401AA8F80000B8F8001000
:10363000481C01F019FD3060306820B9286801F09D
:10364000EBFCFF20B7E7B8F80020511C306800F011
:10365000DEFBB8F80020B4F800C0BB1C0CEB030183
:10366000306800F0BBFB4FE000BF2088801C019950
:10367000884201D9FF209EE72088C01C395C208841
:10368000801C385C41EA00210E9801800E9808B930
:10369000FF2090E72188481C01F0E6FC286028689C
:1036A00008B9FF2087E72288511C286800F0AFFB8B
:1036B0002288B91C286800F091FB0198001F21881E
:1036C000401AA8F80000B8F80010481C01F0CCFC23
:1036D0003060306828B9286801F09EFCFF206AE756
:1036E00010E0B8F80020511C306800F090FBB8F8EA
:1036F0000020B4F800C03B1D0CEB0301306800F063
:103700006DFB01E0FF2056E700BF2B21284600F0AB
:10371000A7FB20B92321284600F0A2FB08B1FF2017
:1037200049E7002047E770B505460C4604212046CE
:10373000FFF7E2F9206808B9012070BD40216268F6
:10374000501C60602068815402216268501C6060D7
:103750002068815429126268501C6060206881547E
:103760006268501C6060206885540020E5E70146CF
:103770004878022801D001207047887820B9C8789D
:103780000A2801D10020F7E70120F5E770B50546CA
:103790000C4604212046FFF7AFF9206808B9012044
:1037A00070BD50216268501C606020688154022105
:1037B0006268501C60602068815429126268501C45
:1037C0006060206881546268501C60602068855485
:1037D0000020E5E701464878022801D00120704723
:1037E000887820B9C8780A2801D10020F7E701209D
:1037F000F5E770B505460C4604212046FFF77CF935
:10380000206808B9012070BD62216268501C6060A8
:103810002068815402216268501C606020688154D5
:1038200029126268501C6060206881546268501CD4
:103830006060206885540020E5E702465078022841
:1038400001D0012070479078B0EB112F05D1D078CE
:10385000CBB2984201D10020F4E70120F2E770B525
:1038600005460C4604212046FFF746F9206808B9B2
:10387000012070BD70216268501C60602068815416
:1038800002216268501C60602068815429126268BD
:10389000501C6060206881546268501C6060206821
:1038A00085540020E5E701464878022801D0012030
:1038B0007047887820B9C8780A2801D10020F7E736
:1038C0000120F5E710B5044602212046FFF714F960
:1038D000206808B9012010BDC0216268501C6060DA
:1038E0002068815400216268501C60602068815407
:1038F0000020F0E730B58BB00020079008900990C9
:103900000A900125A8A0ABA3ADA2AFA10090BA4830
:10391000FDF7E1F907A8002102910391CDE9041018
:1039200000912B02A0A20191A2A1A5A0FFF78DF901
:10393000002842D1089A91B20798FEF759FFFA2061
:10394000FEF76DFF0446002C33D02046FFF748F900
:1039500002282ED12046FFF7DDFA062823D2DFE821
:1039600000F003090E13181DA4A1A348FDF7B3F935
:1039700000251DE0A6A1A048FDF7ADF918E0ABA118
:103980009D48FDF7A8F913E0B1A19B48FDF7A3F905
:103990000EE0B7A19848FDF79EF909E0BDA1964851
:1039A000FDF799F904E0C6A19348FDF794F900BF2B
:1039B00000BF07A8FFF7CCF803E0C8A18E48FDF7C9
:1039C0008AF928460BB030BD70B588B00446202176
:1039D000684600F01CFACAA1204600F066FA2021D1
:1039E000684600F014FAC748006800F066FC054617
:1039F0002A460B46C4A1684600F076FE694620467A
:103A000000F010FA2021684600F001FAC34800686F
:103A100000F053FC05462A460B46C1A1684600F05B
:103A200063FE6946204600F0FDF9204600F022FAC8
:103A3000C0B208B070BD30B5A5B000202190229072
:103A40002390249000240025B9A16B48FDF743F989
:103A5000802101A800F0DBF901A8FFF7B5FF0446BB
:103A6000002C26D021A805230022214600904EA03C
:103A7000FFF741FBC8B908E001A8415D229A501C3C
:103A8000229021988154681C05B2A542F4DB229A49
:103A900091B22198FEF7ACFEADA15748229AFDF7EE
:103AA0001AF921A8FFF754F803E0ADA15248FDF739
:103AB00012F925B030BD2DE9F0418CB080460020D0
:103AC000089009900A900B900790069005900025A9
:103AD0000026002400274046FFF782F80546042D03
:103AE00025D00F2D2CD105AB07AA06A94046FFF71C
:103AF0008EFB0646D6B9BDF814000090A0A13E4842
:103B0000DDE90623FDF7E7F808AADDE90601FFF77E
:103B1000C4FB58B9A3A13848FDF7DDF8099A91B262
:103B20000898FEF765FE08A8FFF712F80BE040467C
:103B3000FFF71DFE18B9A1A12F48FDF7CCF802E050
:103B40004FF0FF3600BF00BFFEF70EFE701C10B92D
:103B50000CB0BDE8F0817D21079800F081F90446A2
:103B6000B4B1701CA0B1641C05E014F8012B3846F8
:103B70007F1C02A90A542078302802DB20783928DB
:103B8000F3DD002002A9C85502A800F097F9074606
:103B90000F2D01D0032D05D1069801F03DFA0798AD
:103BA00001F03AFA00BFD3E73838353335383532CB
:103BB00038000000626F61726473746D333200000C
:103BC00034383735323600004F6E654E65745F44C9
:103BD00065764C696E6B0D0A50524F49443A202568
:103BE000732C09415549463A2025732C0944455602
:103BF00049443A25730D0A00003801405469707336
:103C00003A09C1ACBDD3B3C9B9A60D0A0000000082
:103C10005741524E3A09C1ACBDD3CAA7B0DCA3BAD2
:103C2000D0ADD2E9B4EDCEF30D0A00005741524EAB
:103C30003A09C1ACBDD3CAA7B0DCA3BAB7C7B7A80D
:103C4000B5C4636C69656E7469640D0A0000000098
:103C50005741524E3A09C1ACBDD3CAA7B0DCA3BA92
:103C6000B7FECEF1C6F7CAA7B0DC0D0A000000000F
:103C70005741524E3A09C1ACBDD3CAA7B0DCA3BA72
:103C8000D3C3BBA7C3FBBBF2C3DCC2EBB4EDCEF323
:103C90000D0A00005741524E3A09C1ACBDD3CAA724
:103CA000B0DCA3BAB7C7B7A8C1B4BDD328B1C8C8E0
:103CB000E7746F6B656EB7C7B7A8290D0A000000DF
:103CC0004552523A09C1ACBDD3CAA7B0DCA3BACEA3
:103CD000B4D6AAB4EDCEF30D0A0000005741524EFF
:103CE0003A094D5154545F5061636B6574436F6E74
:103CF0006E656374204661696C65640D0A0000009E
:103D00002C3B00000000002054656D7072657475D6
:103D100072652C252E31663B000000000400002057
:103D200048756D69646974792C252E31663B0000F5
:103D3000546970733A094F6E654E65745F53656ED2
:103D400064446174612D4D5154540D0A000000000B
:103D500053656E642025642042797465730D0A00F2
:103D60005741524E3A094544505F4E657742756659
:103D7000666572204661696C65640D0A000000008A
:103D8000636D6469643A2025732C207265713A2052
:103D900025732C207265715F6C656E3A2025640D69
:103DA0000A000000546970733A0953656E64204339
:103DB0006D64526573700D0A0000000054697073E1
:103DC0003A094D515454205075626C697368205300
:103DD000656E64204F4B0D0A0000000040EA0103AD
:103DE0009B0703D009E008C9121F08C0042AFAD2B1
:103DF00003E011F8013B00F8013B521EF9D2704775
:103E0000D2B201E000F8012B491EFBD2704700221C
:103E1000F6E710B513460A4604461946FFF7F0FFC9
:103E2000204610BD421E12F8013F002BFBD111F8B5
:103E3000013B02F8013B002BF9D1704730B5054634
:103E40002A460B4612F8010B13F8014B08B1A042A9
:103E5000F8D01CB1002802D06D1CF1E7284630BD17
:103E6000CAB2401E10F8011F8A4202D00029F9D1BF
:103E700000207047421C10F8011B0029FBD1801A5A
:103E8000704710B5044600E0401C0378002BFBD1BE
:103E900000E0401C521E04D311F8013B0370002BBC
:103EA000F7D100210170204610BD034611F8012B07
:103EB00000F8012B002AF9D11846704770B5064664
:103EC00000F040FC046805460A220021304600F05C
:103ED0008BFA2C6070BDF0B480EA0102D40F42006E
:103EE000B2EB410F02D20246084611464A0042D0C8
:103EF000C30DDDB2C1F3C752AD1A202D35DAC1F3BF
:103F0000160141F4000204B15242C5F1200602FA42
:103F100006F12A411044B3EBD05F23D0C4B1012D88
:103F2000A0EBC35009DCF0BC4FF0004202EAC352E0
:103F3000DBB200F5000000F098BA400000F180709C
:103F400000EBC350A0F1807040EAD170490009E055
:103F5000490841EAC071A0EBC35000F500004008D9
:103F600000EBC350F0BC00F077BA6142012202EBD3
:103F70004101001BF6E7F0BC704781F00041AAE761
:103F800080F00040A7E72DE9FE4F804681EA03005C
:103F9000C00F0C46009021F0004123F00045B8EB23
:103FA0000200A94105D24046214690461C460B46D8
:103FB000024623F00040104347D0270DC7F30A0004
:103FC000C3F30A510290401A019040286BDAC3F300
:103FD000130040F4801B0098924620B10023D2EBDE
:103FE000030A63EB0B0B01985946C0F1400250469F
:103FF00000F0D9F906460D4650465946019A00F0A0
:10400000E1F910EB08006141002487EA115284EACB
:10401000E7731A4340D0009A62B3019A012A4FEA2B
:10402000075215DC001B61EB02014FF0004202EA6F
:104030000752CDE90042001C41F5801132462B4663
:1040400000F050FA03B0BDE8F08F40462146F9E792
:10405000001B61EB0201001C41F5801300185B415D
:104060002018A2F5001747EB030140EAD570B619F6
:104070006D4111E06D084FEA360645EAC0754FEA1A
:104080000752001B61EB0201001C41F58011490839
:104090004FEA30000019514132462B4603B0BDE8CB
:1040A000F04F00F010BA0098012240000023D0EB3E
:1040B000020263EBE073009821464FEAE074B8EB2C
:1040C000000061EB0401E9E783F000435BE781F066
:1040D000004158E72DE9FE4F81EA030404F0004453
:1040E00021F0004100944FF0000B23F0004350EA10
:1040F00001045ED052EA03045BD0C3F30A54C1F357
:104100000A552C44A4F2F3340194A0FB0254C1F3E9
:10411000130141F48011C3F3130343F4801301FB33
:10412000024400FB034E840A970A44EA815447EA9A
:104130008357A4FB076802958D0A05FB07854FEAA4
:10414000932C04FB0C542705029D4FEA065847EABE
:104150001637B5EB08056EEB070C870E920E47EA93
:10416000811742EA8312A7FB0201B6EB0B0164EB55
:1041700000042B0D43EA0C335E1844EB1C50DA4666
:104180005146E7FB0201C5F313044FEA0B3343EA40
:1041900014534FEA0432019C43EA0603A4F10C04D1
:1041A0000294009CCDE900B400F09CF903B0BDE896
:1041B000F08F00200146F9E72DE9F04D81EA030474
:1041C00004F0004B21F0004514464FF0000A23F0A4
:1041D000004150EA050220D054EA01021DD0C5F387
:1041E0000A570246C5F31303C1F31300C1F30A567D
:1041F00040F4801543F48013A7EB0608101BD64645
:1042000008F2FD3873EB050002D308F1010801E064
:1042100092185B41B8F1000F03DA00200146BDE8B7
:10422000F08D00204FF48011064684460EE0171BE7
:1042300073EB050705D3121B63EB050306434CEA3A
:10424000010C49084FEA300092185B4150EA01071F
:10425000EDD152EA030012D082EA040083EA05019C
:10426000084305D0101BAB4106D20122002306E013
:1042700000224FF0004302E06FF0010253101AEBEE
:1042800006004CEB085110EB0A0041EB0B01BDE8B6
:10429000F04D00F018B996230022114600F0E5B861
:1042A0000EB540F2334102910021CDE900110A46DA
:1042B0000B4600F017F903B000BD00F0004230F0EB
:1042C00000400AD0C10D01F56071C0F3160042EA4A
:1042D0000151C20840071143704700200146704752
:1042E00001F0004330B421F0004150EA010206D051
:1042F0000A0DA2F56072C1F31301002A02DC30BC82
:1043000000207047440F44EAC104C100E01830BCEB
:1043100000EBC25000F0A0B830B50B4601460020BB
:104320002022012409E021FA02F59D4205D303FA77
:1043300002F5491B04FA02F52844151EA2F10102F8
:10434000F1DC30BD2DE9F05F0546002092469B462A
:1043500088460646814640241BE02846414647469B
:10436000224600F04FF953465A46C01A914110D3E5
:1043700011461846224600F016F82D1A67EB010880
:104380004F4622460120002100F00DF817EB0009EE
:104390004E41201EA4F10104DFDC484631462A4686
:1043A0004346BDE8F09F202A04DB203A00FA02F1E0
:1043B000002070479140C2F1200320FA03F3194313
:1043C00090407047202A06DBCB17203A41FA02F0D2
:1043D00043EAE07306E041FA02F3D040C2F1200262
:1043E00091400843194670472DE9F04791460F4622
:1043F00080460446002614F8015B2DB100F012F946
:104400000068405DC007F6D12B2D02D02D2D18D0AD
:10441000641E4A463946204600F008F927B139683B
:10442000A14201D1C7F8008071054FF002040BD5FD
:104430004042002803DD00F085F90460A007BDE8D4
:10444000F08746F48066E4E70028F8DA00F07AF9AD
:1044500004606FF00040F2E70029A8BF7047401CDD
:10446000490008BF20F00100704710B4B0FA80FC8A
:1044700000FA0CF050EA010404BF10BC704749B1C7
:10448000CCF1200421FA04F411FA0CF118BF012137
:1044900021430843A3EB0C01CB1D4FEA00614FEA17
:1044A000102042BF002010BC704700EBC3501044E6
:1044B0000029A4BF10BC7047401C490008BF20F071
:1044C000010010BC704710B5141E73F1000408DA27
:1044D000401C41F1000192185B411A4301D120F0C8
:1044E000010010BD2DE9F04D92469B4611B1B1FA85
:1044F00081F202E0B0FA80F220329046FFF753FFDB
:1045000004460F4640EA0A0041EA0B0153465A4668
:10451000084313D0114653EA010019D0C8F14002F4
:10452000504600F06FF805460E4650465946424642
:10453000FFF739FF084305D0012004E02046394643
:10454000BDE8F08D0020054346EAE0762C43374372
:104550000A986305E40AA0EB08000022FD0A44EA79
:1045600047540A3002D500200146E9E70105101939
:104570006941DDE9084500196941BDE8F04DA2E750
:10458000C1F30A52C1F3130140F2FF3341F4801129
:104590009A4202DA00200146704740F233439A42C1
:1045A000A2F2334202DC524200F02CB8FFF7FBBE0D
:1045B00030B5041E71F1000404DB4FF000444042AA
:1045C00064EB0101141E73F1000405DB1C464FF07F
:1045D0000043524263EB0403994208BF904230BD4E
:1045E000064C074D06E0E06840F0010394E8070040
:1045F00098471034AC42F6D3FBF79EFD5C5100089F
:104600007C510008202A04DB203A21FA02F0002124
:10461000704721FA02F3D040C2F1200291400843D2
:104620001946704700487047585100082DE9F05F5F
:1046300082460078002715468B460AF10104B946E8
:10464000302801D09DB113E014F8010B0127782820
:1046500003D0582801D045B10AE00DB1102D07D183
:104660000027102514F8010B02E0082500E00A25B8
:104670000026B0460EE005FB080005FB06F1012709
:1046800001EB10461FFA80F8B6F5803F00D3B9461B
:1046900014F8010B294600F018F80028EBDABBF1FA
:1046A000000F05D00FB1641E00E05446CBF8004067
:1046B000B9F1000F06D000F045F802210160C81ED4
:1046C000BDE8F09F48EA0640FAE73A2800D23038C1
:1046D00020F02002412A01D3A2F13700884201D301
:1046E0004FF0FF30704700000FB4084B10B504A91D
:1046F00002AA039800F0FCF8044602A9002000F08A
:1047000085FC204610BC5DF814FB00000D5000082D
:104710007CB50C001D461646014601D0601E00E027
:104720000020CDE90010064B6A462946304600F0CD
:10473000DFF8002C02D0009A002111707CBD00002F
:10474000F74F0008004870474C00002002E008C8FE
:10475000121F08C1002AFAD170477047002001E0FB
:1047600001C1121F002AFBD1704700002DE9FF5F35
:1047700082B00021DDE90430020DDDF840B00343D2
:1047800018D044F61050A2F2FF324243151411988B
:1047900001281FD0A5EB0B00401C5FEA000A4FF078
:1047A00000064E4FDFF83891B046504615D5CAF195
:1047B000000413E0119801244AA3012801D16FEAF3
:1047C0000B010298119AC0E90031C0E9024206B01B
:1047D000BDE8F09FCBF10000DFE704460021404A2E
:1047E000491842EB0450CDE9001012E0E00707D071
:1047F00032463B4640464946FFF76CFC80468946B8
:1048000032463B4610461946FFF764FC06460F4603
:104810006410002CEAD1DDE90401DDE90023BAF1DE
:10482000000F06DAFFF756FC42464B46FFF752FCF4
:1048300005E0FFF7C1FC42464B46FFF7BDFC0446CE
:104840000E460022284BFFF7B3FE03D84FF0FF308F
:10485000014607E00022254B20463146FFF793FB37
:10486000FFF78EFE102409E0002C0ADB0A22002349
:10487000FFF768FD039B30321A55641E50EA0102AF
:10488000F2D1641C039AC4F111031444119A012A51
:1048900003D0012208430DD10AE0084304D00020D0
:1048A0004FF0110B119072E7A3EB0B056D1E0DE09D
:1048B0005B4504DD4FF0000205F1010504E003DA79
:1048C0004FF00002A5F10105002AECD002981199E1
:1048D000C0E90231C0E9004579E70000000014405A
:1048E0000000F03F300000000000F0430000E03F17
:1048F0002DE9FF4F95B09A46884606460025EEE121
:10490000252877D100242746F94A0121039400E0A5
:10491000044316F8013F203B01FA03F01042F7D19F
:1049200030782A2811D06FF02F033078A0F13002B0
:10493000092A16D8039A44F0020402EB820203EB20
:1049400042021044761C0390EFE758F8042B0392C0
:10495000002A03DA504244F40054039044F0020465
:10496000761C30782E2816D116F8010F44F0040476
:104970002A280DD06FF02F023078A0F13003092BD8
:1049800009D807EB870302EB4303C718761CF3E74C
:1049900058F8047B761C30786C280FD006DC4C2845
:1049A00017D068280DD06A2814D104E0742810D0DC
:1049B0007A280FD10DE044F400140AE044F4801486
:1049C00001E044F440147278824202D104F580146C
:1049D000761C761C307866280BD013DC582877D0EC
:1049E00009DC002875D04528F6D04628F4D04728A1
:1049F0001AD193E118E0632835D0642879D065286E
:104A000012D18BE1702873D008DC6728F1D06928B7
:104A10006FD06E280DD06F2806D1ACE073282CD053
:104A2000752874D0782853D05246179990476D1C3A
:104A300054E1C4F30250022809D003280DD0D8F85D
:104A4000001004280DD00D6008F1040846E1D8F8E4
:104A50000010EA17C1E90052F6E7D8F800100D80FF
:104A6000F2E70D70F0E718F8041B8DF80010002035
:104A70008DF80100EB46012003E058F804BB4FF02D
:104A8000FF3061074FF0000102D40DE009F1010190
:104A90008946B9420FDA8145F8DB1BF80910002975
:104AA000F4D108E009F1010189468142FADB1BF8E3
:104AB00009100029F6D103985346A0EB09072146B7
:104AC0003846179A00F080FA284400EB090507E001
:104AD00044E008E10DE01BF8010B5246179990479E
:104AE000B9F10109F7D2534621463846179AF2E048
:104AF00039E00A21C4F302524FF0000B0091022A60
:104B000006D058F8040BC117032A09D00AE023E0A5
:104B100008F1070020F00702F2E80201904605E0E4
:104B200000B2C117042A01D140B2C117002906DA28
:104B30000A460021404261EB02012D2202E02205DB
:104B400004D52B228DF80420012203E0E20701D0D6
:104B50002022F7E7914657E00A2100E010214FF0AC
:104B6000000B00910BE010214FF0000B44F0040407
:104B70000827009103E008204FF0000B0090C4F3D9
:104B80000252022A05D058F8040B0021032A08D04B
:104B900008E008F1070020F00702F2E80201904661
:104BA00003E080B2042A00D1C0B24FF0000922070E
:104BB0002AD53278702A07D0DDF800C08CF0100CAE
:104BC0005CEA0B0C05D00EE040228DF80420012297
:104BD00008E050EA010306D030238DF804308DF848
:104BE000052002229146009B83F0080353EA0B0341
:104BF0000AD150EA010201D1620705D530228DF8B1
:104C000004204FF001097F1E3278582A04D039A2BF
:104C10000C920CAA02920BE03BA2F9E75B46009AC9
:104C2000FFF790FB0C9B9B5C029A521E0292137042
:104C300050EA0102F2D1029804A9081A00F1200BEF
:104C4000600702D524F4803400E001275F4502DDCF
:104C5000A7EB0B0000E0002000EB0B010090039895
:104C60004944401A0390E00306D453462146179A5C
:104C7000039800F0A9F90544002706E001A8524670
:104C8000C05D179990476D1C7F1C4F45F6DBE00314
:104C90000CD553462146179A039800F095F9054420
:104CA00004E030205246179990476D1C0099481E29
:104CB00000900029F5DC08E002980299524600783D
:104CC000491C0291179990476D1CBBF10001ABF193
:104CD000010BF1DC5BE100F065F90544761C3078EE
:104CE00000287FF40DAE19B02846BDE8F08F000013
:104CF00009280100303132333435363738396162B2
:104D00006364656600000000303132333435363775
:104D1000383941424344454600000000600700D452
:104D2000062708F1070020F00700F0E8022380467C
:104D300003F0004C5FEA0C0001D097A009E02005C9
:104D400001D596A005E0E00701D095A001E0AFF203
:104D50004C001390307823F0004365280CD006DC1B
:104D6000452809D046281DD047287FD13BE066283A
:104D700018D067287AD136E00021112F01DB1120ED
:104D800000E0781CCDE9000104A90CA8FFF7EEFCB7
:104D9000DDE90D010C9A4FF0000B07F101091092AB
:104DA00000914EE04FF000400097CDE9011004A9BA
:104DB0000CA8FFF7DBFCDDE90D020C9B0F994FF00F
:104DC000000B91461093009211B9791C00EB010978
:104DD000B7EB090003D4C0F1FF3B07F10109A9EBD0
:104DE0000700019042E0012F00DA01270021112F76
:104DF00001DD112000E03846CDE9000104A90CA82E
:104E0000FFF7B4FCDDE90D010C9A00914FF0000BA7
:104E1000B946109221070FD4009A4A4503DA914609
:104E200001E0A9F10109B9F1010F05DD109AA9F11D
:104E30000101515C3029F4D0B84202DA10F1040FBC
:104E400003DA0121CDE9011010E0002803DC8344DE
:104E5000A9EB000102E0411C494500DD8946A0EBB9
:104E60000B00401C01904FF000400290200705D439
:104E70000198484502DB4FF0FF30019000208DF88B
:104E80004B0002980DF14B07B0F1004F25D00220E6
:104E90000C902B200D90029800280CDA40420290D2
:104EA0002D200D9007E00A210298FFF735FA3031E6
:104EB000029007F8011D0C99481E0C900029F2DCA5
:104EC00002980028EFD1791E0D980870307800F014
:104ED000200040F0450007F8020D11A8C01BC01DBE
:104EE00002901398007800B1012000EB09010198AD
:104EF00001EBE071029801440398401A401E0390B0
:104F0000E00306D453462146179A039800F05CF854
:104F100005441398007818B15246179990476D1CB4
:104F2000E00323D553462146179A039800F04CF826
:104F300005441BE0BBF1000F07DB0098584504DD7A
:104F40001098179910F80B0001E01799302052467D
:104F5000904701980BF1010B401E05F101050190EE
:104F600004D12E205246179990476D1CB9F10001CB
:104F7000A9F10109DEDC05E017F8010B524617998B
:104F800090476D1C0299481E02900029F4DC53469C
:104F90002146179A03989EE62D0000002B00000082
:104FA000200000002DE9F041044600251E4617466A
:104FB000880404D405E039462020B0476D1C641EE7
:104FC000F9D52846BDE8F0812DE9F04104460025D9
:104FD0001E469046C80301D5302700E020278804EC
:104FE00004D505E041463846B0476D1C641EF9D52E
:104FF0002846BDE8F0814A68002A06D00A68531C9A
:105000000B6010704868401E486070470A68531C67
:105010000B6010707047000010B5002821D0114BB4
:105020000022001F196803E0814203D80A4649683C
:105030000029F9D152B11368841A9C4204D1006846
:1050400018441060104602E0506000E0186039B16A
:1050500002680B1A934203D10B681A440260496834
:10506000416010BD44000020F0B50B30154D20F01C
:1050700007010024144A0FE003688B420BD38B42D4
:1050800005D95E1A43184768C3E9006700E0436822
:10509000136002C004E0021D10680028ECD1204615
:1050A000002802D1286808B10020F0BD064A074850
:1050B0001060074A121A22F00702C0E900240120FA
:1050C0002860D7E74800002044000020D4000020DA
:1050D000D00200200040404040404040404041411C
:1050E00041414140404040404040404040404040BD
:1050F0004040404040050202020202020202020257
:105100000202020202202020202020202020200253
:1051100002020202020290909090909010101010E3
:10512000101010101010101010101010101010107F
:105130000202020202028888888888880808080813
:1051400008080808080808080808080808080808DF
:105150000202020240000000D55000087C51000805
:1051600000000020500000004C470008CC5100080F
:1051700050000020800600005C470008000000008E
:105180000000000000A24A0400000000000000002F
:1051900001020304060708090000000000000000E7
:1051A00000000000000000000000010203040102F2
:1051B00003040607080902040608000000000000B6
:0C51C000000000000000000000000000E3
:0400000508000131BD
:00000001FF
